:100000000C9438000C9455000C9455000C94550039
:100010000C9455000C9455000C9455000C9455000C
:100020000C9455000C9455000C9455000C945500FC
:100030000C9455000C9455000C9455000C945500EC
:100040000C9455000C9455000C9455000C945500DC
:100050000C9455000C9455000C9455000C945500CC
:100060000C9455000C9455000C9455000C945500BC
:1000700011241FBECFEFD4E0DEBFCDBF11E0A0E062
:10008000B1E0E4E1F5E002C005900D92A23AB107BB
:10009000D9F711E0A2EAB1E001C01D92A33AB1077D
:1000A000E1F70E94E3000C9488020C9400008FEFAB
:1000B00081BB12BA08958FEF87BB18BA08958FEFEE
:1000C00084BB15BA089518BA82E088BB80E185BB6D
:1000D0002AEF30E0C9010197F1F715BA80E285BB3C
:1000E000C9010197F1F715BA089518BA92E098BBC3
:1000F00040E145BB2AEF30E0F9013197F1F715BA3D
:1001000090E295BBF9013197F1F715BA82BB18BAA5
:1001100018BA15BAC9010197F1F745BBC901019792
:10012000F1F715BA089518BA92E098BB90E195BB23
:100130002AEF30E0F9013197F1F715BA90E295BB5B
:10014000F9013197F1F715BA82BB18BA18BA95BB05
:10015000C9010197F1F715BA089518BA92E098BB52
:1001600040E145BB2AEF30E0F9013197F1F715BACC
:1001700090E295BBF9013197F1F715BA82BB81E0A6
:1001800088BB45BBC9010197F1F715BA18BA0895A4
:1001900018BA92E098BB90E195BB2AEF30E0F901E4
:1001A0003197F1F715BA90E295BBF9013197F1F764
:1001B00015BA82BB81E088BB95BBC9010197F1F7F5
:1001C00015BA18BA0895EF92FF920F931F93DF9319
:1001D000CF93CDB7DEB7C25AD0400FB6F894DEBF8A
:1001E0000FBECDBFDE011B96E0E0F1E08BE0019099
:1001F0000D928150E1F7DE015696EBE0F1E08BE0E5
:1002000001900D928150E1F7DE019196E6E1F1E077
:100210008BE001900D928150E1F7DE019C96E1E2C6
:10022000F1E08BE001900D928150E1F7DE01D7966D
:10023000ECE2F1E08BE001900D928150E1F7DE01FC
:10024000AE5BBF4FE7E3F1E08BE001900D92815090
:10025000E1F7DE01A35BBF4FE2E4F1E08BE0019048
:100260000D928150E1F7DE011196EDE4F1E08AE0B4
:1002700001900D928150E1F7DE01A85ABF4FE7E5EA
:10028000F1E08BE001900D928150E1F7DE01AD5974
:10029000BF4FE2E6F1E08BE001900D928150E1F773
:1002A000DE01A259BF4FEDE6F1E08BE001900D9227
:1002B0008150E1F7DE01A758BF4FE8E7F1E08EE09B
:1002C00001900D928150E1F7DE01A957BF4FE6E89A
:1002D000F1E08EE001900D928150E1F7DE01AB5626
:1002E000BF4FE4E9F1E08EE001900D928150E1F71B
:1002F0008FEF81BB12BA87BB18BA84BB15BA88E3EB
:100300000E94750081E00E94750082E00E947500E5
:100310008FE00E9475008E01055F1F4F95E1E92E69
:10032000F12CEC0EFD1EF80181918F010E94AD00B1
:100330000E151F05C1F78E010A5E1F4F80E2E82EE1
:10034000F12CEC0EFD1EF80181918F010E94AD0091
:100350000E151F05C1F78E010F5D1F4FBBE2EB2E7F
:10036000F12CEC0EFD1EF80181918F010E94AD0071
:100370000E151F05C1F78E01045D1F4FA6E3EA2E7F
:10038000F12CEC0EFD1EF80181918F010E94AD0051
:100390000E151F05C1F78E01095C1F4FFAE0EF2E05
:1003A000F12CE00EF11EF80181918F010E94AD0049
:1003B0000E151F05C1F78E010E5B1F4FEAE0EE2EF2
:1003C000F12CE00EF11EF80181918F010E94AD0029
:1003D0000E151F05C1F78E01035B1F4F7AE0E72E54
:1003E000F12CE00EF11EF80181918F010E94AD0009
:1003F0000E151F05C1F78E010F5F1F4F6AE0E62E35
:10040000F12CEC0EFD1EF80181918F010E94AD00D0
:100410000E151F05C1F788E30E94930081E00E943A
:10042000930082E00E9493008FE00E9493008E016F
:10043000085A1F4F5AE0E52EF12CE00EF11EF8018C
:1004400081918F010E94C8000E151F05C1F78E0112
:100450000D591F4F4AE0E42EF12CE00EF11EF80179
:1004600081918F010E94C8000E151F05C1F78E01F2
:1004700002591F4F3AE0E32EF12CE00EF11EF80175
:1004800081918F010E94C8000E151F05C1F780ECF5
:100490000E9493008E0107581F4F2DE0E22EF12C91
:1004A000E00EF11EF80181918F010E94C8000E1527
:1004B0001F05C1F78E0109571F4F9DE0E92EF12C52
:1004C000E00EF11EF80181918F010E94C8000E1507
:1004D0001F05C1F78E010B561F4F8DE0E82EF12C42
:1004E000E00EF11EF80181918F010E94C8000E15E7
:1004F0001F05C1F7CE55DF4F0FB6F894DEBF0FBE14
:10050000CDBFCF91DF911F910F91FF90EF90089594
:04051000F894FFCF8D
:1005140054313D333030274320200054323D3230B3
:1005240035274320200054333D31353527432020DF
:100534000054343D313030274320200054353D30C1
:100544003930274320200054363D303830274320AB
:10055400200054373D303535274320200054383DA2
:100564003033352743200054393D3032352743207A
:10057400200054413D303031274320200054423D77
:100584003030302743202000436F6D5F52706D3D43
:100594003330303020004D74725F52706D3D323212
:1005A40030302000456E675F52706D3D3131303020
:0205B400200025
:00000001FF
